:020000040800F2
:1000000010080020650200086D2100086521000825
:1000100069210008150F00081124000800000000E5
:10002000000000000000000000000000592200084D
:10003000190F000800000000712100086922000863
:100040007F0200087F0200087F0200087F0200088C
:100050007F0200087F0200087F0200087F0200087C
:100060007F0200087F0200087F0200087F0200086C
:100070007F0200087F0200087F0200087F0200085C
:100080007F0200087F0200087F02000800000000D5
:100090000000000000000000000000007F020008D7
:1000A0007F0200087F0200087F0200087F0200082C
:1000B0007F0200087F0200087F0200087F0200081C
:1000C0007F0200087F0200087F0200087F0200080C
:1000D0007F0200087F0200087F0200080000000085
:1000E0007F0200087F0200087F0200080000000075
:1000F0000000000000000000000000007F02000877
:10010000000000007F0200087F0200087F02000854
:1001100000000000000000000000000000000000DF
:100120007F0200087F0200087F0200087F020008AB
:100130007F02000800000000000000000000000036
:100140000000000000000000000000007F02000826
:100150007F0200087F0200087F0200087F0200087B
:100160007F0200087F02000800000000000000007D
:10017000000000000000000000000000000000007F
:10018000000000007F0200080000000000000000E6
:100190007F02000800F002F800F055F80AA090E88D
:1001A000000C82448344AAF10107DA4501D100F032
:1001B0004AF8AFF2090EBAE80F0013F0010F18BFAA
:1001C000FB1A43F001031847F062000010630000BF
:1001D000103A24BF78C878C1FAD8520724BF30C873
:1001E00030C144BF04680C60704700000023002445
:1001F00000250026103A28BF78C1FBD8520728BF37
:1002000030C148BF0B607047662903F05A866529E4
:1002100003F05786672903F05486612903F053865B
:10022000692900F0DF80002070471FB503F03CFE15
:1002300000F0FCFC04000020002103F01FFEE06041
:100240001FBD10B510BD00F0F1FD1146FFF7EDFF29
:1002500002F032FD00F00FFE03B4FFF7F2FF03BC23
:1002600000F050FE0948804709480047FEE7FEE7D6
:10027000FEE7FEE7FEE7FEE7FEE7FEE7FEE7FEE756
:1002800004480549054A064B704700001923000839
:100290009501000810020020100800201004002022
:1002A0001004002053EA020C00F069802DE9F04BA5
:1002B0004FF00006002B1FBFB3FA83F503FA05F4D5
:1002C00024FA05F65E4012BF1643B2FA82F502FA2E
:1002D00005F4C5F120051EBF22FA05FC44EA0C0412
:1002E000203556EA044C4FEA144418BF641C4FF002
:1002F00000084FF00009904271EB030C39D300293C
:1003000019BFB1FA81F701FA07F6B0FA80F700FADF
:1003100007F6C7F120071EBF20FA07FC46EA0C06C5
:100320002037B6FBF4FCA7EB0507103F07F01F0BC7
:10033000CBF120062CFA06F60CFA0BFB44BFB346B1
:100340000026202FA4BF5E464FF0000B5BEA060C90
:1003500008BF4FF0010B19EB0B0948EB0608ABFB8C
:10036000027C06FB02CC0BFB03CCC01B71EB0C0127
:10037000C1E70B46024641464846BDE8F08B13B53F
:10038000084318BF4FF0FF300146AFF30080BDE8CF
:100390001C40704770B5044685690068C10601D5E8
:1003A000302600E02026C00707D070BDD4E9012127
:1003B00030469047206A401C20626D1EF6D570BD05
:1003C00070B5044685690078C00707D170BDD4E9CF
:1003D000012120209047206A401C20626D1EF6D526
:1003E00070BD00002DE9F041064600241068752913
:1003F000314616A510D0AFF30080002802DA404243
:1004000013A507E031688A0701D512A502E0490764
:1004100004D511A5012401E0AFF3008000210A22D8
:1004200006F1240709E0B0FBF2FCB0FBF2F302FB9B
:100430001C00303078541846491C0028F3D123465C
:100440002A463046BDE8F04100F00BB8000000003D
:100450002D0000002B0000002000000070477047B6
:1004600070472DE9F0470D4699469246044600F143
:1004700024080168880604D5E06921F01001216094
:1004800000E00120A84201DD471B00E00027A16930
:100490007A1902EB0900081AA0612078C00602D47C
:1004A0002046FFF777FF002608E0D4E901211AF87B
:1004B00006009047206A401C761C20624E45F4DB03
:1004C0002078C0060AD52046FFF764FF06E0D4E98D
:1004D000012130209047206A401C2062381EA7F17D
:1004E0000107F4DC07E0D4E9012118F80500904782
:1004F000206A401C2062281EA5F10105F3DC20467D
:10050000FFF75EFF2078000602D50220BDE8F087E5
:100510000120FBE72DE9FF4F0C461E464FF0FF3749
:100520008BB0D2E90001DDF860800A908A46C1F301
:100530000A5505B93D46002108464FF00000BAF1C2
:10054000000F00F4400005DA00EB80004FF440019A
:1005500001EA50004FEA9059B9F1010F00DDB946A8
:100560000A9850EA4A000ED044F61050A5F2FF3522
:1005700045432F14B8F1000F1ED07542291E1EDD11
:10058000C9F100021CE0B8F1010F4FF0000001D0EA
:10059000302103E0F24305E02154401CB042FBDB74
:1005A00030460022002121540B99C1F80880C1E98E
:1005B00000200FB0BDE8F08FBD1B6D1CDEE74A4682
:1005C00000DA694206A800F0BBFB06AB93E807001F
:1005D00003AB83E8070050460A9903F06EF88DE8F4
:1005E0000700A0F500501F3800900398002D0ADD89
:1005F00042F21F014A460844002303A903906846BB
:1006000003F0D8FA09E0A0F500504A461F3800234D
:1006100003A90390684603F0E2FA8DE8070000049E
:10062000000C03D04FF0FF30410800E01046B8F155
:10063000000F03D00022009215461EE0751E05D45F
:1006400000F0F8FA303262556D1EF9D5B34601223A
:10065000084302D000227F1C04E02078302801D11A
:1006600000227F1E002A099784D01DE0112D07DA91
:1006700000F0E0FA303262556D1C50EA0102F5D10B
:10068000084302D00098C8B10EE00021681E05E0C2
:10069000235C625C63542254401E491C8142F7DB98
:1006A000AB46A81B401E0990002004F80B000B98D5
:1006B000099AC0F80880C0E9002B7AE711264FF0AC
:1006C000000857E72DE9F04F88460446D21D22F076
:1006D000070191B0D1E90001CDE90A0103F0B6FBB1
:1006E00002460B98C00F01D02D2007E0206881073B
:1006F00001D52B2002E0202101EAC000032A099045
:1007000001D0072A05DB03464146204600F0D8FA0F
:100710000BE12078800601D5E06900E00620B8F101
:10072000650F814606D0B8F1660F18D0B8F1670F93
:1007300070D131E00020B9F1110F009001DB1123DD
:1007400001E009F101030AAA01A90CA8FFF7E2FEE2
:10075000DDE90C70002609F10105834647E0012020
:100760004B4600904FF000470AAA01A90CA8FFF7DA
:10077000D1FEDDE90DB00C995D46002610B909F1F6
:1007800001000D18B9EB050003D4C0F1FF3609F1E3
:100790000105A5EB09002BE0B9F1010F01DA4FF0DB
:1007A00001090020B9F1110F0090484601DD112325
:1007B00000E003460AAA01A90CA8FFF7ABFEDDE999
:1007C0000C704D4600268346207800070AD4AB45BE
:1007D00000DA5D4601A8012D04DD411911F8011C64
:1007E000302907D04F4502DA17F1040F04DA01204F
:1007F00082460FE06D1EEEE7002F02DCED1B3E444B
:1008000003E0781CA84200DD7D1CB81B00F1010A42
:100810004FF000472078000703D4AA4501DB4FF0D2
:10082000FF3A0021B7F1004F0DF143088DF8431056
:1008300024D002202B23002F01DA7F422D230A210E
:10084000021EA0F1010000DC5FB197FBF1FC97FBF9
:10085000F1F201FB1C7C17460CF1300C08F801CDBD
:10086000EEE7A8F1010003702188090501D54521B3
:1008700000E06521A0F1010800F8011C09980FA90A
:10088000A1EB0807FF1D00B10120411901EBEA703F
:10089000A1693844081A401EA0612078C00602D41D
:1008A0002046FFF777FD099828B1D4E90121904748
:1008B000206A401C20622078C00622D52046FFF71F
:1008C00069FD1EE0002E04DBB34502DD01A8805D5A
:1008D00000E03020D4E901219047206A401C2062CA
:1008E000761CAAF101005FEA000A0AD100F09EF925
:1008F000C0680168405CD4E901219047206A401C2F
:100900002062281EA5F10105DCDC07E0D4E9012105
:1009100018F8010B9047206A401C2062381EA7F18E
:100920000107F3DC2046FFF74BFD032011B041E641
:100930002DE9F04F04460D46D21D22F0070089B084
:10094000D0E900974846394603F080FA0246F80F8E
:1009500001D02D2307E02068810701D52B2302E079
:10096000202101EAC0038DF820300BB1012000E006
:100970000020032A824601D0072A04DB29462046AC
:1009800000F09EF93FE12078800601D40D2500E0BB
:10099000E569C7F30A560D2D49DA00214FEA175BC6
:1009A00008464FF00000002F00F4400007DA00EB8B
:1009B00080004FF4400100EBD07001EA6000811527
:1009C000012901DD4FF0FF3100224FEA850CBCF117
:1009D000180F06D31346ACF118004FF08052C240F6
:1009E00003E04FF4801323FA0CF30CF10C0CBCF170
:1009F000200F04D3ACF1200C09FA0CF001E007FA47
:100A00000CF000294FF0004801DD18B90FE00ED1BD
:100A100040450CD319EB02095F4121B9404502D191
:100A20009F4329EA0209BBEB175F00D0761C2088A0
:100A3000000502D57B48784402E07A4878441938AA
:100A400008AA302302F80A30037C0AF10101002EC3
:100A50000AF1020A53546A4602DC4FF0300101E009
:100A60004FF031014FF001088DF8001002D0A6F2CE
:100A7000FF3603E059EA470100D06B4E002D02DC3F
:100A80002178090704D54FF002082E218DF80110B6
:100A9000C44600210BE0C7F303433F01C35C491C7C
:100AA0006D1E02F80830052908F1010801DA002D51
:100AB000F1DC00210CE000EB1973491C1B786D1E62
:100AC000082902F808304FEA091908F1010801DA8B
:100AD000002DF0DC21688B0602D516E0A8F1010894
:100AE000E04505DD02EB080313F8013C302BF5D09F
:100AF000B8F1000F09DD02EB080313F8013C2E2BBF
:100B000003D1090701D4A8F10108002D05DD3E211C
:100B100002F808106D1E08F10108407C002E02F852
:100B2000080008F1010804DA2D20764202F80800D6
:100B300002E02B2002F808000A214FF47A70864266
:100B400008F101080BDB96FBF0F3303302F80830B4
:100B500096FBF0F308F1010800FB136601E0642E38
:100B60000CDB642096FBF0F3303302F8083096FB80
:100B7000F0F308F1010800FB136601E00A2E06DB22
:100B800096FBF1F0303002F8080008F1010896FBFE
:100B9000F1F001FB1060303002F80800A16908F1A3
:100BA000010808EB050202EB0A00081AA061207890
:100BB000C00602D42046FFF7EDFB216A08AE01EB28
:100BC0000A00206204E0D4E9012116F8010B9047E5
:100BD000BAF1010AF7D22078C00602D52046FFF705
:100BE000D9FB6E4609E016F8010B3E280FD0D4E978
:100BF00001219047206A401C2062B8F10108F2D21E
:100C00002046FFF7DDFB09B00320BDE8F08F206A26
:100C10002844206203E0D4E90121302090476D1E72
:100C2000EBD3F8E7A334000002FCFFFF0048704755
:100C30006800002030B5B0F10A0271F100034FEAFC
:100C4000900E4EEA817EB0EB0E0061EB91014FEA0F
:100C5000101E4EEA017E10EB0E0041EB11114FEA1F
:100C6000102E4EEA016E10EB0E0041EB11214FEAFF
:100C7000104E4EEA014E10EB0E0041EB11414018B0
:100C800041F100014FEAD00040EA41704FEAD10142
:100C90004FEA810444EA907410EB800544EB0104B0
:100CA0006D1944EB0404521BA3414FF0000348BFED
:100CB0000A3200D530BD401C41F1000130BD0000BA
:100CC0002DE9F0411F46044603260168072A01F476
:100CD000006004DB08B116A505E016A503E008B125
:100CE00015A500E015A521F010002060A069C01E28
:100CF000A0610FB1401EA0612046FFF74BFB4FB132
:100D0000D4E9012138469047206A401C2062C01C6B
:100D1000206206E0206AFAE7D4E9012115F8010B08
:100D20009047761EF8D22046FFF74AFBBDE8F081D7
:100D30004E414E006E616E00494E4600696E66007F
:100D40002DE9F047814616468AB0354878440DC8EB
:100D50008DE80D0032487844801C03AC0DC884E84F
:100D60000D0041F69B300844372190FBF1F290FBD7
:100D7000F1F5A5F1800501FB12041B3C02D564428C
:100D8000012000E00020DFF898A080460027FA4408
:100D9000AAF1BE0A0EE0E0070AD03246684607EB29
:100DA000470101230AEB810102F019FF8DE80700DA
:100DB00064107F1C002CEED1194F7F44AE3F19E028
:100DC000E80715D007EB04100DF1180A90E80E00A3
:100DD0008AE80E00C068F04201D1981908903246A6
:100DE000012306A903A802F0FAFE03AB83E807007B
:100DF0006D10641C002DE3D14FF0010332466946AB
:100E0000B8F1000F03A802D002F0D4FE01E002F016
:100E1000E6FEC9E90001C9F808200AB0BDE8F0877C
:100E20001C32000000487047480000207546FFF75C
:100E3000F9FFAE4605006946534620F00700854697
:100E400018B020B5FFF71CFABDE820404FF00006AF
:100E50004FF000074FF000084FF0000BAC46ACE835
:100E6000C009ACE8C009ACE8C009ACE8C00921F091
:100E700007018D46704710B50446AFF30080204649
:100E8000BDE81040FFF7E8B930B44FF0013C50F82E
:100E9000042B51F8043BCCFA52F4D51A20D1FCB9FA
:100EA00050F8042B51F8043BCCFA52F4D51A17D160
:100EB000B4B950F8042B51F8043BCCFA52F4D51ACB
:100EC0000ED16CB950F8042B51F8043BCCFA52F413
:100ED000D51A05D1002CDAD030BC4FF00000704795
:100EE00029BAB1FA81F111F01801D1F12000844042
:100EF000F2D1CA40CB4012F0FF0213F0FF0330BC26
:100F0000D01A704701491820ABBEFEE72600020048
:100F100070470000FEE7000070470000B0B50446CF
:100F200000F0F4F8054640F22800C2F20000007814
:100F3000611C18BF044400BF00F0E8F8401BA04249
:100F4000FAD3B0BD2DE9F04F82B000F13E4241F23C
:100F5000000502F1FF77C4F2020507224FEAB72627
:100F6000A84208BF0422042E38BF4FEAB7224FF030
:100F7000010A002400274FF00008009208E000BF9B
:100F8000023708F10108202F04F1040400F0B480B6
:100F90000E680AFA08F916EA090FF1D0D1F804A090
:100FA0000AF0030BABF10106012E17D80322866865
:100FB00002FA07FECA6826EA0E06BA403243826089
:100FC0004268CAF3001522EA090205FA08F54FEA59
:100FD000480C6FEA0E062A4342600BE00322BA4037
:100FE000D643BBF1030FBC4604D1BC464FF0030B04
:100FF00022E000BFC2688D68324005FA0CF52A4332
:10100000BBF1020FC26017D16FF0030202EA58026F
:10101000024404F01C030F25D2F820E005FA03FA7D
:101020000D692EEA0A0E05FA03F343EA0E03136272
:10103000D1F804A00AF0030B02680BFA0CF332405B
:101040001A431AF4403F4FF0010A026098D0002280
:1010500043F644030192C4F202031A6843F6004EB9
:1010600042F480421A601A68C4F2010E02F480420F
:101070000192019A28F003024FF6084C7244CFF611
:10108000FF7C52F80C3004F00C060F25B540AB4342
:10109000009D05FA06F6334342F80C30DEF80820CE
:1010A0004B6842EA090643F60C4CDD0258BF22EABF
:1010B0000906CEF80860C4F2010CDCF800209D029D
:1010C00042EA090658BF22EA0906CCF80060DEF8B9
:1010D00004209D0342EA090658BF22EA0906CEF819
:1010E0000460DEF80020DB0342EA090658BF22EA6A
:1010F0000906CEF8006043E702B0BDE8F08F0000BB
:10110000002A08BF090481617047000040F20820EE
:10111000C2F200000068704770B5B8B3044690F89A
:101120003D0028B9002084F83C00204600F0B0F8CB
:10113000242084F83D002068016821F0010101604D
:10114000016841F400410160016821F4004101603F
:1011500000F02AFA48F28041C0F21E0140F6001366
:10116000D4F804E088424FF00001C0F23D0348F299
:10117000A16C4FF0000238BF01219842C0F2010C6F
:1011800038BF0122E64538BF0A460AB1012070BDCA
:101190004DF68361C4F21B31A0FB01122168950C4E
:1011A0004B684FF4967623F03F0343EA924375432E
:1011B00044F6D3564B60C1F262060B6AA5FB065695
:1011C000B50923F03F03E64538BF950C6A1C1A4366
:1011D0000A62CA6948F2A0664CF6FF73C0F20106C3
:1011E000B64522EA03020BD801384FEA4E03B0FBA2
:1011F000F3F001306FF31F30042898BF04201EE085
:10120000A368013863B119230EFB03F3B0FBF3F0BD
:1012100001306FF31F3078B100F5804008E000BF67
:101220000EEB4E03B0FBF3F001306FF31F3028B12B
:1012300000F5004003E000BF012000E00120104362
:10124000C8610868D4E9072320F0C00010431843A0
:101250000860886848F2FF3204F10C0690434CCED7
:1012600018431043A5698860C86820F0FF00304328
:101270002843C860086840F0010008600020202171
:10128000206484F83D10206384F83E0070BD0000A7
:10129000B0B586B0016845F20040C4F2000081425A
:1012A00002D006B0B0BD00BF002443F63005019463
:1012B000C4F20205296800F5D83041F00201296026
:1012C000296801F0020101910199C02101911221C7
:1012D000CDE90214032104910421059101A9FFF72E
:1012E00031FE0094286940F400102861286900F458
:1012F00000100090009806B0B0BD000040F2280039
:1013000040F20821C2F20000C2F2000100780A682F
:10131000104408607047000080B543F60040C4F2F6
:101320000200016841F400710160016841F48061CC
:101330000160016841F480710160032000F074F8DD
:101340000F2000F005F800F027F8002080BD000015
:1013500070B540F22806C2F2000640F24001327831
:10136000C2F200014FF47A730968B3FBF2F204464B
:10137000B1FBF2F1084600F079FE0F2C4FF00105A9
:1013800008D838B94FF0FF3021460022002500F080
:101390001FF87460284670BD82B0002043F64001FB
:1013A0000190C4F202014A6842F480424A604A68ED
:1013B00002F480420192019A0090086840F0805047
:1013C0000860086800F080500090009802B07047F4
:1013D00010B54EF60C5CCEF2000CDCF80030C3F316
:1013E000022E8EF00704042C28BF0424BEF1030350
:1013F0004FF0FF3E0EFA04F438BF0023A14399409A
:101400000EFA03F39A43114300F00F02043A6244C8
:1014100009010C3200F16043B0F1FF3FC8BF03F592
:101420006442117010BD00004EF60C51CEF2000166
:101430000A684FF6FF031A4060F30A2242F0806008
:1014400040F0FD70086070472DE9F041002800F081
:101450008B8043F60808C4F202080446D8F8F80363
:101460000D4600F00700884207D288F8F853D8F8F4
:10147000F80300F00700A84276D12068810717D54D
:10148000410705D5D8F8001041F4E051C8F8001024
:10149000010705D5D8F8001041F46041C8F80010E4
:1014A000D8F80010A26821F0F0011143C8F800102C
:1014B000C0073FD1D8F8F80300F00700A84207D9C9
:1014C00088F8F853D8F8F80300F00700A8424BD189
:1014D0002068410707D5D8F80010E26821F4E051F0
:1014E0001143C8F80010000708D5D8F8000021699A
:1014F00020F4604040EAC100C8F8000000F07CF829
:10150000D8F8001043F68472C1F30311C0F600024C
:10151000515C40F2400220FA01F140F22C00C2F28C
:1015200000000068C2F200021160FFF711FF002006
:10153000BDE8F0816068811E022907D258F8081CB6
:1015400089015CBF0120BDE8F08111E0012807D1CD
:1015500058F8081C89035CBF0120BDE8F08107E052
:1015600058F8081C890703D40120BDE8F08100BFAA
:10157000D8F8001021F003010843C8F80000FFF775
:10158000C5FD064641F28837D8F80000616800F0D2
:101590000C00B0EB810F8DD0FFF7B8FD801BB84277
:1015A000F2D90320BDE8F08140F2400043F6080183
:1015B000C2F20000C4F202010068096843F69472A6
:1015C000C1F38221C0F60002515CC84070470000A0
:1015D00040F2400043F60801C2F20000C4F20201EA
:1015E0000068096843F69472C1F34231C0F6000204
:1015F000515CC8407047000010B543F60404C4F2C3
:101600000204606800F00C0008280BD0042819BF01
:1016100042F20040C0F2F40047F64000C0F27D10F4
:1016200010BD00BF206821682368490247F64001C9
:10163000C0F27D1100F03F02C3F388105CBF42F29C
:101640000041C0F2F401A1FB00010023FEF72AFED5
:1016500021680222C1F3014102EB4101B0FBF1F02C
:1016600010BD00002DE9F04182B000286AD0044688
:10167000007843F60006C007C4F202060BD0B0683B
:1016800000F00C00042840F0A1803068800302D5EF
:101690006068002856D0207880071AD5B06810F00E
:1016A0000C0F09D0B06800F00C00082840F0A880AA
:1016B0007068400200F1A4803068800702D5E068BD
:1016C00001283FD13068216920F0F80040EAC100CC
:1016D00030602078000739D4207840074ED4A569BF
:1016E0005DB3B06800F00C00082840F0BD80012D0B
:1016F00028D07068E16900F480028A4222D1216A10
:1017000000F03F028A421DD147F6C071626A014073
:10171000B1EB821F16D1A26A0023CFF6FF7303EB51
:10172000C23200F440316FF30F0291420AD1E16AF4
:1017300000F07060B0EB016F04D1002002B0BDE892
:10174000F08100BF012002B0BDE8F081606900288F
:1017500040F20000C4F2472076D00121C0F8801E7C
:10176000FFF7D4FC054600BF706F8007B4D4FFF7C5
:10177000CDFC401B0228F7D9DDE000BF306C10F033
:1017800080580AD100200190306C40F080503064C5
:10179000306C00F080500190019847F20007C4F2CD
:1017A00000073868C00541D4386840F4807038605C
:1017B000FFF7ACFC054600BF3868C00536D4FFF71C
:1017C000A5FC401B0228F7D9B5E000BFB06800F0C7
:1017D0000C00082803D1706840023FF556AF6068DE
:1017E000B0F5803F07D0B0F5A02F40F08D80306875
:1017F00040F480203060306840F4803030608DE00C
:10180000E068002852D00020C4F247200121016086
:10181000FFF77CFC054600BF306880073FF552AFFC
:10182000FFF774FC401B0228F6D984E0A068012869
:1018300005D005284ED1306F40F004003067306F7E
:1018400040F0010030674FE00021C0F8801EFFF734
:101850005DFC0546706F80077FF53EAFFFF756FCD5
:10186000401B0228F6D966E00027C4F24727002073
:101870003866FFF74BFC022D05460BD1306880011E
:101880005ED5FFF743FC401B02284FF00300F5D95B
:1018900054E700BF306880017FF54FAFFFF736FC9B
:1018A000401B02284FF00300F4D947E70020C4F2A0
:1018B000472000210160FFF729FC054630688007BA
:1018C0007FF507AFFFF722FC401B02284FF0030013
:1018D000F4D933E7316F002821F001013167316F0E
:1018E00021F0040131674DD0FFF710FC054641F2AD
:1018F000883700BF306F800756D4FFF707FC401BC6
:10190000B842F7D917E000BF3168002821F48031D0
:101910003160316821F4802131604FD0FFF7F6FB50
:10192000054600BF306880033FF5B5AEFFF7EEFB1C
:10193000401B6428F6D9032002B0BDE8F08100BF47
:1019400004F11C052FCD08430021CFF6FF7140EABA
:10195000821001EBC3316FF30F0140EA05600843C9
:10196000706001203866FFF7D1FB044630688001C3
:101970003FF5E3AEFFF7CAFB001B02284FF0030060
:10198000F4D9DBE6FFF7C2FB054641F2883700BF1A
:10199000306F800708D5FFF7B9FB401BB8424FF006
:1019A0000300F5D9CAE600BFB8F1000F7FF497AE87
:1019B000306C20F08050306491E600BFFFF7A6FB4A
:1019C000054600BF306880037FF565AEFFF79EFBDC
:1019D000401B64284FF00300F4D9AFE670B538B16E
:1019E0000446406A30B10020206104F1140007E091
:1019F000012070BD6068B0F5827F03D004F11C0047
:101A0000002101600026A66294F8510020B920460A
:101A100084F8506000F03CF8022084F8510094E80B
:101A20000F0001F48271056802F4044225F04005BC
:101A30000560114403F400622369114403F00202BB
:101A40006369114403F00102A369E569114403F4D9
:101A50000072114405F03802256A114405F0800235
:101A6000A56A114305F4005211430160626A042122
:101A700001EA134102F0100211444160C16921F4EE
:101A80000061C1610120666584F85100304670BD77
:101A900080B586B0016843F60000C4F200008142C0
:101AA00002D006B080BD00BF002143F63002019194
:101AB000C4F20202136900F5E63043F48043136177
:101AC000136903F480430193019B0191136843F070
:101AD00002031360126802F002020192019A4FF4AD
:101AE000604201920222CDE90221032104910521E5
:101AF000059101A9FFF726FA06B080BD2DE9F04354
:101B000083B0044690F85000012803D1022003B0AE
:101B1000BDE8F0834FF001091D4616460F4684F8D4
:101B20005090FFF7F3FA94F85110012972D18046D2
:101B3000002F4FF0010018BF002E00F0D6800320C8
:101B4000002184F8510061652763A686E686A163BB
:101B5000A187E187A0682164B0F5004F2068616427
:101B600007D1016821F040010160016841F4804122
:101B700001600168490603D4016841F04001016039
:101B80006168731EE268B1FA81F1B3FA83F349091F
:101B90005B09B2F5006F41EA03013DD131B137F87D
:101BA000021BC1602763E18E0139E186E18E0029C5
:101BB0006CD0691C1BD000BF8168890706D4FFF771
:101BC000A5FAA0EB0800A84208D3C1E0216B31F8C8
:101BD000022BC2602163E08E0138E086E08E00288F
:101BE00054D0206881688907E9D5EFE720688168CB
:101BF000890703D4FFF78AFA08E000BF216B31F8A8
:101C0000022BC2602163E08E0138E086E08E00285E
:101C1000ECD13BE0022068E039B139780173206BE8
:101C200001302063E08E0138E086E08E70B3681CDE
:101C30000BD11BE0216B09780173206B013020630D
:101C4000E08E0138E086E08E00B320688168890765
:101C5000F0D4FFF75BFAA0EB0800A842F3D303200F
:101C600043E000BFFFF752FAE08E78B12068816848
:101C70008907F7D5216B09780173206B0130206348
:101C8000E08E0138E086E08E0028EFD140F240007F
:101C9000C2F20000006849F68171C1F25E61A0FBEA
:101CA0000101480D4FF47A71484302906068B0F525
:101CB000827F23D1204680212A46434600F05AFAEB
:101CC00028B1606D40F02000606520206065A0684C
:101CD00038B9002001902068C168019180680190A6
:101CE0000198606D002818BF0120002184F85190F0
:101CF00084F8501003B0BDE8F08300BF02980028BC
:101D0000E5D0029801380290206880680006DED590
:101D100002980028DBD00298013802902068806881
:101D20000006D4D502980028D1D00298013802903C
:101D3000206880680006CAD502980028C7D002989B
:101D400001380290206880680006D7D4BFE700BF42
:101D50000320CAE72DE9F04383B0044690F8500011
:101D6000012803D1022003B0BDE8F08301201E4604
:101D700015460F4684F85000FFF7C8F994F8511043
:101D80008146012940F09880002F4FF0010018BFD4
:101D9000002D00F09E80002E00F09B8094F85100F2
:101DA000002104281CBF052084F851006165A5634B
:101DB000E687A6872763E6862068A6862164616495
:101DC0000168490603D4016841F04001016061687F
:101DD000731EE268B1FA81F1B3FA83F3DDF828806B
:101DE00049095B09B2F5006F41EA03017AD131B1CB
:101DF00037F8021BC1602763E08E0138E0860125B9
:101E000018F1010031D101E0FFF780F9E08E18B937
:101E1000E08F002800F0D0802068816889070CD509
:101E2000E18E51B1012D08D1216B002531F8022B33
:101E3000C2602163E18E0139E1868168C907E3D080
:101E4000E18F0029E0D0C068A16B012521F8020BC9
:101E5000A163E08F0138E087D6E700BFFFF756F9AE
:101E6000A0EB0900404580F0FD80E08E18B9E08FBE
:101E7000002800F0A1802068816889070CD5E18ED8
:101E800051B1012D08D1216B002531F8022BC26020
:101E90002163E18E0139E1868168C907DED0E18FD7
:101EA0000029DBD0C068A16B012521F8020BA163DA
:101EB000E08F0138E087D1E76068B0F5827F07D115
:101EC000A06800284FF0020008BF042901D15BE799
:101ED0000220012184F85110002184F8501003B031
:101EE000BDE8F08339B139780173206B013020638C
:101EF000E08E0138E086012518F1010033D101E0C0
:101F0000FFF704F9E08E10B9E08F002854D0206864
:101F1000816889070ED5E18E61B1012D0AD1216B4F
:101F2000002509780173216B206801312163E18E5E
:101F30000139E1868168C907E2D0E18F0029DFD04D
:101F4000C068A16B01250870A06B0130A063E08F11
:101F50000138E087D4E700BFFFF7D8F8A0EB09000D
:101F6000404580F08180E08E08B9E08F20B3206882
:101F7000816889070ED5E18E61B1012D0AD1216BEF
:101F8000002509780173216B206801312163E18EFE
:101F90000139E1868168C907DED0E18F0029DBD0F5
:101FA000C068A16B01250870A06B0130A063E08FB1
:101FB0000138E087D0E700BF40F24000C2F20000E5
:101FC000006849F68171C1F25E61A0FB0101480D14
:101FD0004FF47A71484302906068B0F5827F0FD168
:101FE0002046802142464B4600F0C4F860B3606D45
:101FF00040F02000606520206065012069E700BF97
:10200000029808B3029801380290206880680006A0
:102010001AD50298C0B102980138029020688068F1
:10202000000611D5029878B1029801380290206814
:102030008068000608D5029830B1029801380290F5
:10204000206880680006DBD4A06800284FF00000FC
:102050007FF43FAF01902168CA68019289680191BD
:10206000019936E7032034E7032032E7411E0020C0
:10207000B0EB116F1CBF012070474EF21002CEF280
:10208000000251604EF62351CEF20001F0230B7096
:102090000721906011607047002804BF012070473D
:1020A00010B5044690F83D0028B9002084F83C00A3
:1020B000204600F021F8242084F83D002068C16803
:1020C00021F40051C160204600F030F92068016918
:1020D00021F490410161416921F02A014161C16807
:1020E00041F40051C16000202021206484F83D109B
:1020F00084F83E1010BD000080B586B0016841F242
:102100000000C4F20100814202D006B080BD00BFD1
:10211000002143F630020191C4F20202536900F536
:10212000704043F010035361536903F010030193AF
:10213000019B0191136843F001031360126802F0E0
:1021400001020192019A4FF4C06201920222CDE98C
:102150000221032104910721059101A9FEF7F2FE56
:1021600006B080BDFEE70000FEE70000FEE70000CD
:10217000704700002DE9F04182B01E4690460D46A2
:102180000446FEF7C3FF301A00EB0807FEF7BEFF58
:1021900040F24001C2F200010968C1F3CB3179433A
:1021A000019121688A682A40AA4227D1064618F17F
:1021B00001001FD0FEF7AAFF801BB84222D201986F
:1021C00001990028A1F1010101912168896808BFE6
:1021D000074601EA0500A842ECD00FE088682840D5
:1021E000A8420BD188682840A84207D188682840B7
:1021F000A84203D188682840A842EFD0002002B04E
:10220000BDE8F081D4E900014268B1F5827F22F097
:10221000E00242600AD1A168B1F5004F02D0B1F5E9
:10222000806F03D1016821F040010160A16AB1F51E
:10223000005F07D1016821F400510160016841F499
:1022400000510160012084F85100002084F8500002
:10225000032002B0BDE8F0817047000040F2F401B5
:10226000C2F2000108607047FFF748B8B0B592B0FD
:10227000002443F640000B94CDE90944CDE907441E
:102280000594CDE90344CDE901440094C4F2020071
:102290000168022541F080510160006800F0805023
:1022A0000090009847F200000094C4F2000001681A
:1022B00065F38F310160006800F4404000900098A1
:1022C0000120099010200A9008200E905420CDE99A
:1022D0000F050420119006A80695CDE90C54FFF7D0
:1022E000C1F928B1EFF3108072B600BFFEE700BF5E
:1022F0000F20CDE901054FF48050CDE9040401A879
:1023000002210394FFF7A0F820B1EFF3108072B61A
:10231000FEE700BF12B0B0BD4EF68850CEF200000E
:10232000016841F4700101607047000010B5044677
:102330000068D4E902C22369016921F440511143C4
:102340000161626943EA0C01E3691143C268194300
:1023500049F20C639A431143C1604169A26921F4B7
:10236000407141F20043114340F48062C4F2010322
:102370009A42416102D1FFF72BF901E0FFF714F90E
:10238000E16963681922B1F5004FA0FB02011FD17A
:102390005A00DB0FFDF786FF48F21F51C5F2EB1123
:1023A000A0FB01235A096FF0630302FB03003223F1
:1023B00003EBC000A0FB01014FF4F87000EA11101C
:1023C00000EB0210C1F3421108442168886010BD7F
:1023D0009A009B0FFDF766FF48F21F51C5F2EB1103
:1023E000A0FB01235A096FF0630302FB03003223B1
:1023F00003EB0010A0FB0101F02000EA511000EBFC
:102400000210C1F3431108442168886010BD000028
:10241000FEE70000F0B581B040F20044C4F20204CF
:1024200020464FF4805100220027FEF769FE40F25B
:102430004C15C2F200052846802101224FF47A7320
:10244000FFF75CFB0DF103062846314601224FF4ED
:102450007A738DF80370FFF751FB2846314601224D
:102460004FF47A738DF80370FFF748FB20464FF462
:1024700080510122FEF744FE01B0F0BD2DE9F04F7E
:1024800088B0049340F2F403C2F20003D3F8009042
:102490000792B9F806300091002B039000F0E0801D
:1024A000049840F61805010C000A14274FF6004462
:1024B0000190C4F202050022C4F20207CFF6FF74B5
:1024C0004FF4807A4FF480434FF020484FF420407F
:1024D000029105E0B9F8061001328A4280F0C0800E
:1024E000B9F804B0BBF1000FF4D000994FF0000C24
:1024F000114489B20691090A059192E0B9F80610D3
:102500002A261929039934BF6144A1EB0C0189B231
:102510003E604FF0604E4FF460490E0A45F804A04B
:10252000C5F800E000BFC5F800903E602B6045F89C
:1025300004A0C5F8008000BF286039602B6045F812
:1025400004A0C5F8008000BF28603E602B6045F8FD
:1025500004A0C5F8008000BF286039602B212B60E3
:1025600045F804A0C5F8008000BF2860396045F830
:1025700004A0C5F800E000BFC5F80090059E3E60CD
:102580002B6045F804A0C5F8008000BF28600699BC
:1025900039602B6045F804A0C5F8008000BF2860B2
:1025A0003E602B6045F804A0C5F8008000BF28609D
:1025B00039602C212B6045F804A0C5F8008000BFCD
:1025C0002860396045F804A0C5F800E000BFC5F8F0
:1025D0000090029939602B6045F804A0C5F800808E
:1025E00000BF2860019939602B6045F804A0C5F848
:1025F000008000BF2860049939602B6045F804A072
:10260000C5F8008000BF286040F2F401C2F200016A
:10261000D1F800900CF1010CB9F804B0DC45BFF41E
:1026200059AF4AF6AB21CAF6AA21ABFB01160799AE
:1026300031F812E026F00701802606FA01F141FA8E
:102640000CF111EA0E0F02D1BBF10D0FDCD32EFA03
:102650000CF1C9077FF452AFBBF10C0FD4D84DE792
:1026600008B0BDE8F08F00002DE9F04F81B00646BC
:10267000884288461446DDF828A084BF80460E466E
:102680009A429946A8EB060084BF91461C46010475
:102690001CD480B2C5434FF0FF3700BF0137B819D3
:1026A00080B2A1B2524600F09BFCE8190130F5D18E
:1026B0004FF0FF371FFA89FB0137B81980B259462E
:1026C000524600F08DFCE8190130F5D1A9EB040069
:1026D00001041DD480B2C5434FF0FF37B6B200BF2E
:1026E0000137381981B23046524600F079FCE819BA
:1026F0000130F5D14FF0FF371FFA88F6013738194E
:1027000081B23046524600F06BFCE8190130F5D139
:1027100001B0BDE8F08F00002DE9F04340F2140C49
:1027200040F61801C4F2020C2A224FF6004EC4F201
:102730000201CCF80020CFF6FF7E4FF480794FF0F5
:1027400060484FF4604700264FF480434FF0204428
:102750004FF42045032241F80E90C1F8008000BFDD
:102760000F60CCF800600B6041F80E900C6000BF69
:102770000D60CCF800600B6041F80E900C6000BF5B
:102780000D60CCF800204FF448720B6041F80E90B9
:102790000C6000BF0D60CCF800202B220B6041F8CC
:1027A0000E900C6000BF0D60CCF80020012241F8B3
:1027B0000E90C1F8008000BF0F60CCF800600B6085
:1027C00041F80E900C6000BF0D60CCF800600B600B
:1027D00041F80E900C6000BF0D60CCF800204FF463
:1027E000F0720B6041F80E900C6000BF0D60CCF8E9
:1027F00000202C220B6041F80E900C6000BF0D6091
:10280000CCF800204EF2011241F80E90C1F8008081
:1028100000BF0F60060C070AC0F20502013ACCF8AF
:1028200000600B6041F80E900C6000BF0D60CCF8AA
:1028300000700B6041F80E900C6000BF0D60CCF88A
:1028400000000B6041F80E900C6000BF0D60E5D1F8
:10285000BDE8F0832DE9F04782B040F20048D02077
:10286000C4F202088DF8070040464FF48051002260
:102870004FF00009FEF744FC40F24C15C2F200058F
:102880000DF107062846314601224FF47A734FF4C2
:102890007A7AFFF733F90DF10607284631463A46B2
:1028A00001238DF80790CDF800A0FFF753FA9DF8AB
:1028B0000640284631463A4601238DF80790CDF868
:1028C00000A0FFF747FA9DF8065040464FF48051AC
:1028D0000122FEF715FC45EA042048F6C871C0083D
:1028E000CFF6FD7140F21F3210FB021043F6352186
:1028F000C4F2FC4150FB01F0810A01EBD07080B2C0
:1029000002B0BDE8F08700002DE9F04782B040F248
:1029100000489020C4F202088DF8070040464FF4AA
:10292000805100224FF00009FEF7EAFB40F24C15FF
:10293000C2F200050DF107062846314601224FF488
:102940007A734FF47A7AFFF7D9F80DF10607284623
:1029500031463A4601238DF80790CDF800A0FFF7E5
:10296000F9F99DF80640284631463A4601238DF88C
:102970000790CDF800A0FFF7EDF99DF8065040460E
:102980004FF480510122FEF7BBFB45EA042047F2D9
:102990003861C008C0F201016FF4EF7210FB021041
:1029A0004BF2C531C9F2A21151FB0000C10A01EB83
:1029B000D07000F2DF1080B202B0BDE8F0870000F6
:1029C0002DE9F04F81B040F238004FF61A7AC2F28A
:1029D0000000C0F21A0AFFF741FC6FF07F40FFF7DA
:1029E0009BFE40F2A80709204FF000084FF0010BB2
:1029F000C2F200070AE000BF08F10108ABF1020BC8
:102A0000B8F1030F4FF00A0000F0C680A0EB4801B8
:102A10000029F1D4B8F1000F00F08080B8F1010F67
:102A200040D0B8F1020FE7D100EB0B0400260025DF
:102A300015E000BF60B340F20000C2F20000007871
:102A4000811B05F1C00080B2CAB240F26B110023B5
:102A500000F086FA0136B44205F14605CCD005F106
:102A60009B0005F1D7014FF4AA724FF4C873CDF85B
:102A700000A0FFF7F9FD397878780029DAD000282E
:102A8000D9D140F20000C2F2000030448178D8E78A
:102A900040F20000C2F200003044807800F12001D2
:102AA000CFE700BF5844462100FB01F440F200008C
:102AB000C2F2000000F11C064FF0000912E000BF56
:102AC00030B3317809F17A0080B2CAB240F22511F0
:102AD000002300F045FA09F146094C4506F10106CC
:102AE0003FF48AAF09F1550009F191014FF4877263
:102AF0004FF4A573CDF800A0FFF7B6FD39787878CC
:102B00000029DDD00028DCD116F8131CDAE700BF5D
:102B100016F8130C00F12001D4E700BF00EB0B0402
:102B20000026002515E000BF60B340F20000C2F2AD
:102B300000004078811905F1570080B2CAB2DF2148
:102B4000002300F00DFA0136B44205F146053FF4CA
:102B500053AF05F1320005F16E01C8224FF48273C4
:102B6000CDF800A0FFF780FD397878780029DBD018
:102B70000028DAD140F20000C2F200003044817C2B
:102B8000D9E700BF40F20000C2F200003044807C70
:102B900000F12001CFE700BF322091214FF4AA724B
:102BA0004FF4C873CDF800A0FFF75EFD3DA25020A2
:102BB0004FF4B471002300F0E9F940F285204FF49E
:102BC00039714FF4AA724FF4C873CDF800A0FFF723
:102BD0004BFD322091214FF4CD724FF4EB73CDF8C1
:102BE00000A0FFF741FD31A25A204FF4D771002316
:102BF00000F0CCF940F285204FF439714FF4CD72DA
:102C00004FF4EB73CDF800A0FFF72EFD9B20D721EA
:102C10004FF4CD724FF4EB73CDF800A0FFF724FD15
:102C2000BE204FF4D2712C22002300F099F940F21B
:102C30003F2040F27B214FF4CD724FF4EB73CDF87F
:102C400000A0FFF711FD4FF4197040F2A9112E22D8
:102C5000002300F085F9E12040F235214FF4CD72D8
:102C60004FF4EB73CDF800A0FFF7FEFC10A240F28A
:102C7000771040F2A911002300F088F9FF24BE204C
:102C80004FF4167164228C230094FFF7EDFCBE20F4
:102C90004FF416719622BE230094FFF7E5FC01B0B5
:102CA000BDE8F08F43617073000000004E756D0049
:102CB000537061636500000086B040F20048C4F2C2
:102CC0000208FEF729FBFFF7D1FA002443F6300093
:102CD00005940094C4F20200016808F5806641F092
:102CE000040101600168002201F0040100910099D3
:102CF000009401684FF4604741F080010160016871
:102D000001F08001009100990094016841F00101F7
:102D10000160016801F001010091009900940168CF
:102D200041F00201016000684FF4604100F00200D0
:102D3000009000983046FEF7E3F9A8F58065284634
:102D4000FF2100224FF0FF0BFEF7DAF940464FF467
:102D5000985100224FF49859FEF7D2F9019701AF2C
:102D60004FF0010A30463946CDE902A40494FEF73B
:102D7000E9F828463946CDE901BACDE90344FEF722
:102D8000E1F80720CDE901040220039040463946CE
:102D9000FEF7D8F840463946CDE9019ACDE903441B
:102DA000FEF7D0F840F24C10A8F5E631C2F2000070
:102DB0004FF482724FF40073302780E816000A2126
:102DC000C0E90344C0E90543C761C0E90844C0E95C
:102DD0000A41FEF703FE28B1EFF3108072B600BF80
:102DE000FEE700BF40F2F800A8F5D831C2F20000BB
:102DF00048F2A0624FF48043C0F2010280E816005E
:102E0000C0E90343C0E90544C0E90744FEF784F97B
:102E100020B1EFF3108072B6FEE700BF40F2A805C4
:102E2000C2F20005A8F57441284640F8081F4FF487
:102E3000E13100220C23C0E90112C0E90322C0E9FC
:102E40000532C261FFF728F920B1EFF3108072B6A6
:102E5000FEE700BF00F066F9FFF7DCFAFFF7B0FD10
:102E600040F2000040F2300840F2A41AC2F2000022
:102E7000C2F20008C2F2000A00F11209FFF7EAFCF0
:102E80000C306880FFF740FDC0F5EB70A88064202F
:102E9000FEF744F84046FFF7E1F96888A0F13201F7
:102EA0008AB2A8885F2A10D8B0F5AA7F0DD3B0F5F2
:102EB000C87F0AD86A7842B9287880F00100287063
:102EC000FFF77EFD6988A888323989B25F290BD85F
:102ED000B0F5CD7F08D3B0F5EB7F05D8687880F0EA
:102EE00001006870FFF76CFD9AF80000DAF8011035
:102EF0008AF80100BAF80500CAF80210BAF80710FB
:102F0000AAF806009AF8090000244F460026AAF8FD
:102F100008108AF8000005E00C364634782E07F1D8
:102F20000107ABD0688804F132018142F4D804F182
:102F30006E018142F0D3A888C8383C28ECD8387894
:102F400029788AF8000006F58273002908BF20302E
:102F5000C2B298B26421FF2300F002F8DCE700005F
:102F600010B540F2F40CC2F2000CDCF800C0A2F183
:102F70002004BCF80620DCF800E0E4B262430EEB6B
:102F80004202BDE81040FFF779BA00002DE9F04198
:102F90001C461378002B08BFBDE8F08140F2F4080E
:102FA000C2F200080646D8F800000D46571E00BFC2
:102FB000A3F120010268C088C9B2484302EB400275
:102FC000B0B229462346FFF759FAD8F80000BB787B
:102FD0008188002B0E4407F10107E9D1BDE8F0819B
:102FE0002DE9F04740F2140CC4F2020C2A23CCF86D
:102FF00000304FF6004E40F61803CFF6FF7EC4F2C5
:1030000002034FF480744FF060484FF46049050AA2
:103010004FF4804A4FF020464FF4204743F80E40CB
:10302000C3F8008000BFC3F80090CCF80050C3F88C
:1030300000A043F80E401E6000BF1F60CCF80000E7
:10304000C3F800A043F80E401E6000BF1F60CCF81C
:103050000050C3F800A043F80E401E6000BF1F6080
:10306000CCF800002B20C3F800A043F80E401E60EF
:1030700000BF1F60CCF80000080A43F80E40C3F8F8
:10308000008000BFC3F80090CCF80000C3F800A097
:1030900043F80E401E6000BF1F60CCF80010C3F85C
:1030A00000A043F80E401E6000BF1F60CCF8000077
:1030B0002C20C3F800A043F80E401E6000BF1F6024
:1030C000CCF80010C3F800A043F80E401E6000BF0B
:1030D0001F60CCF80000100C43F80E40C3F80080CD
:1030E00000BFC3F80090CCF80000100AC3F800A09D
:1030F00043F80E401E6000BF1F60CCF80000C3F80C
:1031000000A043F80E401E6000BF1F60CCF80020F6
:10311000C3F800A043F80E401E6000BF1F60BDE86A
:10312000F08700002DE9F04F81B04FF6004540F6E2
:103130001804CFF6FF75C4F202044FF0007060511E
:103140000A20FDF7EBFE4FF4007060510A20FDF7F6
:10315000E5FE1426C4F20206E22030604FF48077C8
:103160004FF06040675120604FF4604000BF206026
:103170001E2030604FF4804A4FF0204B4FF420481F
:103180000220C4F800A06751C4F800B000BFC4F822
:103190000080306054204FF060414FF46042C4F82A
:1031A00000A06751C4F800B000BFC4F800803060D0
:1031B0004FF0E0090120C4F800A06751C4F800B046
:1031C00000BFC4F80080C6F800906751216000BFBE
:1031D000226030600120C4F800A06751C4F800B03C
:1031E00000BFC4F80080FDF799FE4FF06040C6F8BC
:1031F0000090675120604FF4604000BF20600320C2
:10320000306001204FF06049C4F800A06751C4F855
:1032100000B000BFC4F80080FDF780FE01203060E0
:103220004FF460406751C4F8009000BF2060012057
:10323000FDF774FEE62030604FF460406751C4F83B
:10324000009000BF206003203060FF20C4F800A081
:103250006751C4F800B000BFC4F800803060C4F803
:1032600000A06751C4F800B000BFC4F8008030600F
:1032700001204FF06049C4F800A06751C4F800B0C5
:1032800000BFC4F80080FDF749FEB02030604FF465
:1032900060406751C4F8009000BF2060202030607B
:1032A0000020C4F800A06751C4F800B000BFC4F803
:1032B000008030600320C4F800A06751C4F800B05B
:1032C00000BFC4F8008030601F20C4F800A0675120
:1032D000C4F800B000BFC4F8008030600120C4F81A
:1032E00000A06751C4F800B000BFC4F8008030608F
:1032F000DF204FF00009C4F800A06751C4F800B007
:1033000000BFC4F8008030600120C4F800A06751FD
:10331000C4F800B000BFC4F80080C6F80090C4F83C
:1033200000A06751C4F800B000BFC4F80080FDF7EA
:10333000F5FDB42030604FF06040675120604FF4DD
:10334000604000BF206003203060A020C4F800A0CF
:103350006751C4F800B000BFC4F8008030602E2070
:10336000C4F800A06751C4F800B000BFC4F80080E2
:10337000C6F80090C4F800A06751C4F800B000BFC0
:10338000C4F8008030603020C4F800A06751C4F851
:1033900000B000BFC4F80080306000200F21C4F8E6
:1033A00000A06751C4F800B000BFC4F800803060CE
:1033B000C4F800A06751C4F800B000BFC4F8008092
:1033C0003160C4F800A06751C4F800B000BFC4F871
:1033D000008030600120C4F800A06751C4F800B03C
:1033E00000BFC4F80080FDF799FDB62030604FF0B3
:1033F0006040675120604FF4604000BF20600220B1
:1034000030600D20C4F800A06751C4F800B000BFC0
:10341000C4F80080306000211020C4F800A067517B
:10342000C4F800B000BFC4F800803160C4F800A048
:103430006751C4F800B000BFC4F800803060C4F821
:1034400000A06751C4F800B000BFC4F8008030602D
:103450000820C4F800A06751C4F800B000BFC4F849
:1034600000803160C4F800A06751C4F800B000BF0C
:10347000C4F8008030600120C4F800A06751C4F88F
:1034800000B000BFC4F80080FDF748FDBA203060EE
:103490004FF060494FF460406751C4F8009000BF9E
:1034A00020600F2030600120C4F800A06751C4F8EC
:1034B00000B000BFC4F80080FDF730FDB8203060D8
:1034C0004FF460406751C4F8009000BF20600720AF
:1034D00030600120C4F800A06751C4F800B000BFFC
:1034E000C4F80080306001204FF06049C4F800A0AB
:1034F0006751C4F800B000BFC4F80080FDF70EFDAE
:10350000362030604FF460406751C4F8009000BF2F
:1035100020600820306001204FF06049C4F800A00E
:103520006751C4F800B000BFC4F80080FDF7F6FC96
:10353000F02030606751C4F800904FF460490020DB
:1035400000BFC4F8009030600120C4F800A06751AB
:10355000C4F800B000BFC4F80080FDF7DFFCB8205D
:1035600030604FF06040675120600F2000BFC4F80A
:10357000009030600120C4F800A06751C4F800B08A
:1035800000BFC4F80080306001204FF00109C4F88A
:1035900000A06751C4F800B000BFC4F80080FDF778
:1035A000BDFCBA2030604FF06040675120604FF49E
:1035B000604000BF20600120C6F80090C4F800A061
:1035C0006751C4F800B000BFC4F80080FDF7A6FC46
:1035D000292030604FF060414FF46042BE206751B7
:1035E000216000BF2260306006206751216000BF6B
:1035F00022603060F0210020C4F800A06751C4F8B8
:1036000000B000BFC4F800803160C4F800A067516A
:10361000C4F800B000BFC4F800803060C4F800A057
:103620006751C4F800B000BFC4F800803160C4F82E
:1036300000A06751C4F800B000BFC4F8008030603B
:103640000020C4F800A06751C4F800B000BFC4F85F
:103650000080306001204FF06049C4F800A067513D
:10366000C4F800B000BFC4F80080FDF757FCD020BC
:1036700030604FF460410D206751C4F8009000BFE6
:10368000216030602C20C4F800A06751C4F800B05D
:1036900000BFC4F8008030606751C4F8009000BFDC
:1036A00021604FF46041292030606751C4F80090D8
:1036B00000BF216001B0BDE8F08F5FEA400C08BF99
:1036C00091F0000F4FEA8C234FEAC12243EA515197
:1036D0004FEA1C5018BF00F5F0404FEA300018BF09
:1036E00041F000415FEA6C5C00F02980BCF1FF3FD3
:1036F00008BF40F080407047130C06BF12044FF023
:10370000100C4FF0000C130E04BF12020CF1080C49
:10371000130F04BF12010CF1040C930F04BF9200AD
:103720000CF1020CD30F04BF52000CF1010C114636
:103730004FF00002A0F11F00A0EB0C00704711F049
:10374000004F08BF704731F000413FF4D5AF0B0C7C
:1037500006BF09044FF0100C4FF0000C0B0E04BF15
:1037600009020CF1080C0B0F04BF09010CF1040C49
:103770008B0F04BF89000CF1020CCB0F04BF490072
:103780000CF1010CCCF1200322FA03F341EA03010E
:1037900002FA0CF2A0EB0C0000F1010070470000EF
:1037A00023F07F4720F07F4C80EA030000F00040C8
:1037B000ACEB070303F57C5303F1FF032DE98049CC
:1037C00009B44FEA144324EA03484FEA154B25EAAB
:1037D0000B4E0FF2042606EB13273E7803FB066719
:1037E000C7F5000707FB06F64FEAD64606F10206C4
:1037F0004FEA543707FB066CCCF1005C4FEA1C47DC
:103800002CEA074C0CFB06F507FB06F404EB154607
:103810004FEA961649085FEA320234BF00204FF0A3
:1038200000404FEAD13706FB07FC4FEA1C4C0CFB6B
:103830000BF7D21B03FB0CF761EB07010CFB0EF738
:10384000B0EB074072EB17420CFB08F734BFA2EB5A
:103850000742B2EB074261EB17414FEA0C444FEAD3
:10386000910706FB07FC4FEA1C4C0CFB0BF7B0EB77
:10387000C74072EB573203FB0CF734BFA2EBC742D1
:10388000B2EBC74261EB57310CFB0EF7B0EBC70050
:1038900072EB57720CFB08F734BFA2EBC702B2EB16
:1038A000C70261EB57714FEA816141EA92114FEA19
:1038B000826242EA90124FEA806004EBCC04039FDC
:1038C0004FEAD13706FB07FC4FEA1C4C0CFB0BF709
:1038D000D21B03FB0CF761EB07010CFB0EF7B0EBFF
:1038E000074072EB17420CFB08F734BFA2EB07420C
:1038F000B2EB074261EB17414FEA8C5504EB9C2475
:103900004FEA910706FB07FC4FEA1C4C0CFB0BF738
:10391000B0EBC74072EB573203FB0CF734BFA2EB9E
:10392000C742B2EBC74261EB57310CFB0EF7B0EB6D
:10393000C70072EB57720CFB08F734BFA2EBC7024B
:10394000B2EBC70261EB57714FEA816141EA921114
:103950004FEA826242EA90124FEA806015EB4C25F2
:1039600044F100044FEAD13706FB07FC4FEA1C4C38
:103970000CFB0BF7D21B03FB0CF761EB07010CFBF5
:103980000EF7B0EB074072EB17420CFB08F734BFA1
:10399000A2EB0742B2EB074261EB17414FEA8131DC
:1039A00041EA92414FEA823242EA90424FEA803045
:1039B0004FEA0C7615EB1C1544F1000448EA03436A
:1039C0004EEA0B484FF0000EB2EB080C71EB030708
:1039D00024BF624639464EEB0E0E4FF0000B001826
:1039E000524149414BEB0B0BB2EB080C71EB030757
:1039F0007BF1000B24BF624639464EEB0E0E4FF0B2
:103A0000000B0018524149414BEB0B0BB2EB080C79
:103A100071EB03077BF1000B24BF624639464EEB86
:103A20000E0E51EA020718BF46F0010616EB0E769D
:103A300055F1000254F1000103D5BDE88901BDE84C
:103A40000088BDE88901BDE80048B619524141EB44
:103A50000101A3F10103704780807F7E7D7C7B7A2A
:103A60007978777676757473727171706F6E6E6D2A
:103A70006C6C6B6A6A6968686766666564646363D0
:103A800062616160605F5F5E5E5D5D5C5C5B5B5A56
:103A90005A595958585757565655555554545353C3
:103AA00052525251515050504F4F4F4E4E4D4D4D1E
:103AB0004C4C4C4B4B4B4A4A4A4949494848484769
:103AC00047474746464645454544444444434343A7
:103AD00043424242424141419C46002B30D4770050
:103AE0002BD04FEA37071CB503B44FF010004FF04E
:103AF0001001BAF1000F06D0BCF1000FDCBF40F09E
:103B0000080040F008014FF000000FBCBDE8104075
:103B10000BF1010BBBF1010F08BF5FEA170722BFD2
:103B200012F1010211F101014FF0004143F10003D4
:103B300000F0004043EA00007047F9D35708D0E78F
:103B400046EA06464FEA164613F1400F1FDD13F111
:103B5000200FDFBF16430A46002120335B42BED050
:103B6000C3F1200746EA06464FEA164602FA07F76F
:103B700046EA070622FA03F2C3F1200701FA07F723
:103B800042EA070221FA03F14FF00003A7E746EAF1
:103B9000020646EA06464FEA164646EA0106BCBF5A
:103BA00046EA0646360C4FF000034FF000024FF095
:103BB000000194E72DE9804C70B49A46934691E851
:103BC000380007C831EA400C48BF34EA430C03D53B
:103BD000FFF7E6FDFFF780FFF0BCBDE8008C2DE9A4
:103BE000804C70B49A46934691E8380007C810F0AC
:103BF000804F08BF13F0804F03D100F005F8FFF7A6
:103C00006BFFF0BCBDE8008C20F07F4723F07F4CB9
:103C100080EA030000F0004007EB0C03A3F57C539F
:103C2000A3F1FE0392F0000F00F0B38095F0000FB7
:103C300000F077802DE901494FEA114021EA004860
:103C40004FEA144624EA064700FB06FC08FB06F68A
:103C500007FB08F818EB06484CEB164C00FB07F77F
:103C600018EB07484CEB17404FEA124B22EA0B4E79
:103C70004FEA154625EA06470BFB06FC0EFB06F647
:103C800007FB0EFE1EEB064E4CEB164C0BFB07F72C
:103C90001EEB074E4CEB174B18EB0B0840F10000E6
:103CA00018EB0E0B58EB000840F100008F1A4FF094
:103CB00000014FF000063CBFC943661B14BFB5EBC3
:103CC000040C00213CBFC943F61B4FEA174427EA06
:103CD00004454FEA1C472CEA074C04FB076205FB2E
:103CE00007F70CFB05F616EB074642EB174204FB01
:103CF0000CFC16EB0C4642EB1C421BEB060658EB89
:103D0000020241414EEA8E0E46EA9E0601D5BDE80A
:103D10000189B619524141EB0101A3F10103BDE84C
:103D200001894FEA144524EA05464FEA114721EA82
:103D3000074C05FB07F406FB07F70CFB06F111EB3C
:103D4000074144EB174405FB0CFC11EB0C4144EB21
:103D50001C444FEA124722EA074C05FB07F206FB18
:103D600007F70CFB06F616EB074642EB174205FB7E
:103D70000CFC16EB0C4642EB1C456A1854F1000192
:103D800048BF7047B619524141EB0101A3F101034D
:103D9000704795F0000F37D04FEA114221EA0246F2
:103DA0004FEA144724EA074C02FB07F106FB07F72A
:103DB0000CFB06F414EB074441EB174102FB0CFC2F
:103DC00014EB0C4441EB1C414FEA154725EA074C24
:103DD00002FB07F506FB07F70CFB06F616EB07469A
:103DE00045EB174502FB0CFC16EB0C4645EB1C4261
:103DF000121951F1000148BF7047B619524141EB09
:103E00000101A3F1010370474FEA144524EA054676
:103E10004FEA114721EA074C05FB07F106FB07F7BC
:103E20000CFB06F212EB074241EB174105FB0CFCC1
:103E300012EB0C4251EB1C414FF0000648BF70479B
:103E4000921841EB0101A3F10103704703B40198FB
:103E50004100009850EAC12018BF04204A0D18BF45
:103E600040F0010040F2FF72B2EB515F08BF40F03A
:103E70000200012808BF052002B0704710B50029D4
:103E80000AD00878002807D005487844FCF7FCFFE2
:103E9000002801D0002010BD0248784410BD000069
:103EA0004E26000046260000F1EE100A4FF6FF7184
:103EB000C0F2C03120EA010040F04070E1EE100A8B
:103EC0007047FCF7FFBBFCF733BD3031323334357C
:103ED0003637383961626364656678700030313234
:103EE000333435363738394142434445465850001B
:103EF00002400000000000A000000000054000009B
:103F0000000000C8000000000C4000000000409CC1
:103F100000000000194000000020BCBE00000000AE
:103F200034400000BFC91B8E00000004B5400000F3
:103F3000504BCFD06607E2CF010000006C4100007B
:103F40003E8251AADFEEA73401000000D9420000F2
:103F5000DCB5A0E23A301F97FFFFFFFFB445000039
:103F6000FD25A0C8E9A3C14FFFFFFFFFFF3F0000F1
:103F70000000008000000000FF3F00000000008003
:103F80000000000000000000000000000102030427
:103F900006070809000000000102030400000000F9
:103FA0000000000000000000000000000000000011
:103FB0000000000000000000000000000000000001
:103FC0000000000000000000000000000000800170
:103FD00080018001800180018001800180018001D9
:103FE00080018001800180010000000080018001CB
:103FF00000000000000000000000000000000000C1
:10400000CC00CC00CC00CC00CC00CC0000000000E8
:1040100000000000000000000000000000000000A0
:104020000000000000000000000000000000000090
:104030000000000000000000600C600C600C300606
:104040003006FE1FFE1F300638071803FE1FFE1F36
:10405000180318038C018C018C0100000000800003
:10406000E003F80F9C0E8C1C8C188C009800F80153
:10407000E007800E801C8C188C189C18B80CF00F70
:10408000E00380008000000000000000000000004D
:1040900000000E181B0C110C110611061103110360
:1040A0009B018E01C038C06C604460443044304491
:1040B0001844186C0C380000000000000000E001FB
:1040C000F0033807180618063003F001F000F80076
:1040D0009C310E33061E061C061C063FFC73F021A5
:1040E00000000000000000000000000000000000D0
:1040F0000C000C000C000C000C000C000000000078
:1041000000000000000000000000000000000000AF
:10411000000000000000000000000000000000029D
:1041200000038001C000C00060006000300030006B
:10413000300030003000300030003000600060009F
:10414000C000C00080010003000200000000200049
:104150006000C0008001800100030003000600062B
:104160000006000600060006000600060003000325
:1041700080018001C00060002000000000000000FD
:104180000000000000000000C000C000D806F807D2
:10419000E0013003380700000000000000000000CC
:1041A000000000000000000000000000000000000F
:1041B00000000000000000008001800180018001FB
:1041C0008001FC3FFC3F8001800180018001800173
:1041D00000000000000000000000000000000000DF
:1041E00000000000000000000000000000000000CF
:1041F000000000000000000000000000000080013E
:1042000080010001000180000000000000000000AB
:10421000000000000000000000000000000000009E
:1042200000000000E007E0070000000000000000C0
:10423000000000000000000000000000000000007E
:10424000000000000000000000000000000000006E
:104250000000000000000000000000000000C0009E
:10426000C000000000000000000000000000000C82
:10427000000C000600060006000300030003800394
:10428000800180018001C000C000C00060006000AB
:104290000000000000000000000000000000E0033B
:1042A000F007380E180C0C180C180C180C180C18F9
:1042B0000C180C180C180C18180C380EF007E0032A
:1042C00000000000000000000000000000000001ED
:1042D0008001C001F0019801880180018001800106
:1042E00080018001800180018001800180018001C6
:1042F0000000000000000000000000000000E003DB
:10430000F80F180C0C180C1800180018000C0006F8
:1043100000038001C000600030001800FC1FFC1F7B
:104320000000000000000000000000000000E001AC
:10433000F807180E0C0C0C0C000C0006C003C0078C
:10434000000C001800180C180C18180CF807E003E3
:104350000000000000000000000000000000000C51
:10436000000E000F000F800DC00C600C600C300CB4
:10437000180C0C0CFC3FFC3F000C000C000C000C5B
:104380000000000000000000000000000000F80F26
:10439000F80F180018000C00EC03FC071C0E001CA2
:1043A0000018001800180C181C0C180EF807E00371
:1043B0000000000000000000000000000000C00736
:1043C000F00F381C181818000C00CC03EC0F3C0E32
:1043D0001C1C0C180C180C18181C380EF007E003E5
:1043E0000000000000000000000000000000FC1FB2
:1043F000FC1F000C00060006000380038001C001C2
:10440000C000E0006000600070003000300030004C
:104410000000000000000000000000000000E003B9
:10442000F007380E180C180C180C3806F007F007B7
:10443000180C0C180C180C180C18380CF80FE0039A
:104440000000000000000000000000000000E00389
:10445000F007380E1C0C0C180C180C181C1C381EFD
:10446000F81BE0190018000C000C1C0EF807F001F6
:10447000000000000000000000000000000000003C
:10448000000000000000000080018001000000002A
:10449000000000000000000000000000800180011A
:1044A000000000000000000000000000000000000C
:1044B00000000000000000008001800100000000FA
:1044C00000000000000000000000000080018001EA
:1044D000000100018000000000000000000000005A
:1044E0000000000000000000000000000010001CA0
:1044F000800FE003F8001800F800E003800F001CB4
:10450000001000000000000000000000000000009B
:10451000000000000000000000000000F81F000084
:1045200000000000F81F0000000000000000000074
:10453000000000000000000000000000000000007B
:10454000000000000000000000000000080038002B
:10455000F001C007001F0018001FC007F00138005D
:104560000800000000000000000000000000E00360
:10457000F80F180C0C180C180018000C000600039B
:104580008001C000C000C00000000000C000C000EA
:10459000000000000000000000000000000000001B
:1045A000E00718180420C229224A1144094409448A
:1045B000094409221113E20C024004201818E007F4
:1045C0000000000000000000000000000000800368
:1045D0008003C006C006C006600C600C301830189E
:1045E0003018F83FF83F1C700C600C6006C006C025
:1045F0000000000000000000000000000000FC03BC
:10460000FC0F0C0C0C180C180C180C0CFC07FC0FF5
:104610000C180C300C300C300C300C18FC1FFC0744
:104620000000000000000000000000000000C007C3
:10463000F01F38381C300C700660060006000600BB
:1046400006000600060006600C701C30F01FE00734
:104650000000000000000000000000000000FE0359
:10466000FE0F060E06180618063006300630063015
:1046700006300630063006180618060EFE0FFE033A
:104680000000000000000000000000000000FC3FEF
:10469000FC3F0C000C000C000C000C00FC1FFC1F6D
:1046A0000C000C000C000C000C000C00FC3FFC3F4C
:1046B0000000000000000000000000000000F83FC3
:1046C000F83F18001800180018001800F81FF81F0D
:1046D000180018001800180018001800180018001A
:1046E0000000000000000000000000000000E00FDB
:1046F000F83F3C780E6006E007C00300030003FEAD
:1047000003FE03C007C006C00EC03CF0F83FE00F38
:1047100000000000000000000000000000000C305D
:104720000C300C300C300C300C300C30FC3FFC3FAB
:104730000C300C300C300C300C300C300C300C3099
:1047400000000000000000000000000000008001E8
:104750008001800180018001800180018001800151
:104760008001800180018001800180018001800141
:104770000000000000000000000000000000000633
:1047800000060006000600060006000600060006F9
:10479000000600060006180618063807F003E001B8
:1047A00000000000000000000000000000000630D3
:1047B0000618060C060606038601C600660076008B
:1047C000DE008E0106030606060C0618063006609B
:1047D00000000000000000000000000000001800C1
:1047E0001800180018001800180018001800180009
:1047F000180018001800180018001800F81FF81FFB
:1048000000000000000000000000000000000EE0BA
:104810001EF01EF01EF036D836D836D836D866CC04
:1048200066CC66CCC6C6C6C6C6C6C6C686C386C362
:1048300000000000000000000000000000000C303C
:104840001C303C303C306C306C30CC30CC308C3157
:104850000C330C330C360C360C3C0C3C0C380C3046
:104860000000000000000000000000000000E00761
:10487000F81F1C380E70066003C003C003C003C0DD
:1048800003C003C003C006600E701C38F81FE007A9
:104890000000000000000000000000000000FC0F0D
:1048A000FC1F0C380C300C300C300C300C18FC1F7A
:1048B000FC070C000C000C000C000C000C000C00A1
:1048C0000000000000000000000000000000E00701
:1048D000F81F1C380E70066003E003C003C003C05D
:1048E00003C003C007E006630E3F1C3CF83FE0F73F
:1048F00000C0000000000000000000000000FE0FEB
:10490000FE1F06380630063006300638FE1FFE074A
:1049100006030606060C0618061806300630066062
:104920000000000000000000000000000000E003A4
:10493000F80F1C0C0C180C180C001C00F803E00FEE
:10494000001E0038063006300E301C1CF80FE00741
:104950000000000000000000000000000000FE7FDA
:10496000FE7F800180018001800180018001800143
:10497000800180018001800180018001800180012F
:1049800000000000000000000000000000000C30EB
:104990000C300C300C300C300C300C300C300C3037
:1049A0000C300C300C300C300C301818F81FE007AD
:1049B0000000000000000000000000000000036094
:1049C0000630063006300C180C180C18180C180C91
:1049D000380E30063006700760036003C001C00166
:1049E0000000000000000000000000000000036064
:1049F000C361C361C361663366336633663366334E
:104A000066336C1B6C1B6C1B2C1A3C1E380E380E4C
:104A100000000000000000000000000000000FE0A7
:104A20000C7018303018700C600EC00780038003C3
:104A3000C003E006700C301C18180C300E6007E044
:104A4000000000000000000000000000000003C0A3
:104A500006600C301C383818300C6006E007C003C4
:104A6000800180018001800180018001800180013E
:104A70000000000000000000000000000000FC7FBB
:104A8000FC7F006000300018000C0006000380016D
:104A9000C0006000300018000C000600FE7FFE7FA2
:104AA0000000000000000000000000000000E00323
:104AB000E003600060006000600060006000600073
:104AC00060006000600060006000600060006000E6
:104AD000600060006000E003E003000000003000C0
:104AE0003000600060006000C000C000C000C00175
:104AF000800180018001000300030003000600061E
:104B00000000000000000000000000000000E003C2
:104B1000E00300030003000300030003000300039D
:104B2000000300030003000300030003000300036D
:104B3000000300030003E003E003000000000000A6
:104B4000C001C00160036003600330063006180C2A
:104B5000180C000000000000000000000000000031
:104B60000000000000000000000000000000000045
:104B70000000000000000000000000000000000035
:104B80000000000000000000000000000000FFFF27
:104B9000FFFF0000000000000000000000000C000B
:104BA0000C000C000C000C000C00000000000000C9
:104BB00000000000000000000000000000000000F5
:104BC00000000000000000000000000000000000E5
:104BD0000000000000000000F003F8071C0C0C0CA3
:104BE000000FF00FF80C0C0C0C0C1C0FF80FF01849
:104BF000000000000000000000000000000018009D
:104C00001800180018001800D803F80F380C1818EE
:104C100018181818181818181818380CF80FD8037E
:104C20000000000000000000000000000000000084
:104C30000000000000000000C003F007300E180C58
:104C40001800180018001800180C300EF007C003E8
:104C5000000000000000000000000000000000183C
:104C60000018001800180018C01BF01F301C18187E
:104C700018181818181818181818301CF01FC01B0E
:104C80000000000000000000000000000000000024
:104C90000000000000000000C003F00F300C1818E6
:104CA000F81FF81F180018003818301CF00FC00744
:104CB0000000000000000000000000000000800F65
:104CC000C00FC000C000C000F007F007C000C00067
:104CD000C000C000C000C000C000C000C000C000D4
:104CE00000000000000000000000000000000000C4
:104CF0000000000000000000E00DF80F180E0C0C82
:104D00000C0C0C0C0C0C0C0C0C0C180EF80FE00D11
:104D1000000C0C0C1C06F807F00100000000180045
:104D20001800180018001800D807F80F381C1818B9
:104D300018181818181818181818181818181818F3
:104D40000000000000000000000000000000C000A3
:104D5000C000000000000000C000C000C000C00093
:104D6000C000C000C000C000C000C000C000C00043
:104D70000000000000000000000000000000C00073
:104D8000C000000000000000C000C000C000C00063
:104D9000C000C000C000C000C000C000C000C00013
:104DA000C000C000C000F8007800000000000C0047
:104DB0000C000C000C000C000C0C0C060C038C01FD
:104DC000CC006C00FC009C018C030C030C060C0C4A
:104DD0000000000000000000000000000000C00013
:104DE000C000C000C000C000C000C000C000C000C3
:104DF000C000C000C000C000C000C000C000C000B3
:104E000000000000000000000000000000000000A2
:104E100000000000000000007C3CFF7EC7E383C16F
:104E200083C183C183C183C183C183C183C183C162
:104E30000000000000000000000000000000000072
:104E400000000000000000009807F80F381C181838
:104E500018181818181818181818181818181818D2
:104E60000000000000000000000000000000000042
:104E70000000000000000000C003F00F300C181804
:104E800018181818181818181818300CF00FC00334
:104E90000000000000000000000000000000000012
:104EA0000000000000000000D803F80F380C1818AC
:104EB00018181818181818181818380CF80FD803DC
:104EC000180018001800180018000000000000006A
:104ED0000000000000000000C01BF01F301C18186C
:104EE00018181818181818181818301CF01FC01B9C
:104EF000001800180018001800180000000000003A
:104F00000000000000000000B007F0037000300057
:104F10003000300030003000300030003000300011
:104F20000000000000000000000000000000000081
:104F30000000000000000000E003F003380E180C31
:104F40003800F003C007000C180C380EF007E0031F
:104F50000000000000000000000000000000000051
:104F60008000C000C000C000F007F007C000C00013
:104F7000C000C000C000C000C000C000C007800763
:104F80000000000000000000000000000000000021
:104F90000000000000000000181818181818181851
:104FA00018181818181818181818381CF01FE019B5
:104FB00000000000000000000000000000000000F1
:104FC00000000000000000000C18180C180C180C51
:104FD000300630063006600360036003C001C00184
:104FE00000000000000000000000000000000000C1
:104FF0000000000000000000C141C141C3616363C3
:10500000636363633636363636361C1C1C1C1C1C28
:105010000000000000000000000000000000000090
:1050200000000000000000001C38381C300C600636
:1050300060036003600360036006300C381C1C389A
:105040000000000000000000000000000000000060
:1050500000000000000000001830301830187018F0
:10506000600C600CE00CC006C00680038003800367
:1050700080018001C001F00070000000000000000D
:105080000000000000000000FC1FFC1F000C0006D8
:1050900000038001C000600030001800FC1FFC1FEE
:1050A00000000000000000000000000000000003FD
:1050B0008001C000C000C000C000C000C00060008F
:1050C0006000300060004000C000C000C000C000B0
:1050D000C000C0008001000300000000000080014B
:1050E00080018001800180018001800180018001B8
:1050F00080018001800180018001800180018001A8
:1051000080018001800180018001000000006000BA
:10511000C000C00180018001800180018001000386
:10512000000300060003000180018001800180016E
:1051300080018001C000600000000000000000004D
:10514000000000000000000000000000F010F81F48
:10515000080F000000000000000000000000000038
:10516000000000000000000000000000000000003F
:10517000000000000000000000000000000000002F
:10518000000000000000000000000000000000001F
:10519000000000000000000000000000000000000F
:1051A000E003E003E003E003E003E003E003E003E7
:1051B000C003C003C001C001C001C001C0010000A4
:1051C00000000000E003E003E00300000000000036
:1051D000000000003C1E3C1E3C1E3C1E3C1E3C1EB3
:1051E0003C1E000000000000000000000000000065
:1051F00000000000000000000000000000000000AF
:105200000000000000000000CE01CE03DE039E037C
:105210009C039C07FF3FFF7F3807380F780F780FFC
:10522000780EFFFFFFFFF01EF01CE01CE03CE03DAD
:10523000E03900000000000000000000FC03FE0F49
:10524000EE1FE01EE01EE01EE01EE01FE00FE00784
:10525000F003FC01FE01FE01FE01FE01FE01FE0164
:10526000FE3DFC3FF00FE001E00100000000000007
:10527000033E07F78FE78EE79EE3BCE3B8E7F8E766
:10528000F0F7E03FC001FF03FF07F307F30FF31E42
:10529000F33CF338F3787FF03FE0000000000000BB
:1052A00000000000E007F80F780F781F781F781FC4
:1052B000780FF00FE00F801FC37FC3FBE7F3F7F118
:1052C000F7F0FFF07FF03EF87F7CFF3FEF1F00001C
:1052D0000000000000000000E003E003E003E00342
:1052E000E003C003C0010000000000000000000057
:1052F00000000000000000000000000000000000AE
:105300000000000000000000000000003F007C00E2
:10531000F001E001C003C00780078007800F000F85
:10532000000F000F000F000F000F800F8007800795
:10533000C007C003E001F0017C003F000F00000047
:10534000007E001FC007C003E001F001F000F00084
:10535000F800780078007800780078007800F8008D
:10536000F000F000F001E001C003C007001F007E64
:1053700000780000E003C003C001CE39FF3F7F3F4B
:1053800020037003F807780F3C1F38060000000068
:10539000000000000000000000000000000000000D
:1053A00000000000000000000000000000000000FD
:1053B00000000000C001C001C001C001C001C00167
:1053C000C001FFFFFFFFC001C001C001C001C0015B
:1053D000C00100000000000000000000000000000C
:1053E00000000000000000000000000000000000BD
:1053F0000000000000000000000000000000E003CA
:10540000E003E003E003E001E001E001C00180030C
:10541000000000000000000000000000000000008C
:10542000000000000000FE3FFE3F00000000000002
:10543000000000000000000000000000000000006C
:10544000000000000000000000000000000000005C
:10545000000000000000000000000000000000004C
:10546000000000000000E003E003E003E0030000B0
:1054700000000000000000000F000F001E001E00D2
:105480003C003C0078007800F000F000E001E00112
:10549000C003C00380078007000F000F001E001E1E
:1054A000003C003C0078007800F00000F007F80FA6
:1054B0007C1F3E3E1E3C1F7C1F7C0F780F780F78B0
:1054C0000F780F780F780F781F7C1F7C1E3C3E3EB4
:1054D0007C1FF80FF0070000000000000000000033
:1054E000F000F007F03FF03FF001F001F001F001B3
:1054F000F001F001F001F001F001F001F001F00124
:10550000F001F001F001FF3FFF3F0000000000004C
:1055100000000000E00FF83F7C3C3C003E003E00F5
:105520003E003C003C007C00F800F001E003C007B6
:105530008007000F001E003E003CFE3FFE3F0000C3
:105540000000000000000000F00FF81F7C1C3E006F
:105550003E003E003C003C00F800F00FF80F7C00DD
:105560003E001E001E001E001E003E007C1CF81F98
:10557000E01F000000000000000000007800F800BC
:10558000F800F801F803F807F807780F781E781E7E
:10559000783C78787878FFFFFFFF78007800780013
:1055A0007800780078000000000000000000000093
:1055B000FC1FFC1FFC1F001E001E001E001E001E04
:1055C000E01FF81FFC007C003E003E001E003E0075
:1055D0003E003C007C1CF81FE01F000000000000A3
:1055E00000000000FC01FE078E0F001F001E003EA1
:1055F000003C003CF83DFC3F3E7F1F7E0F3C0F3CD3
:105600000F3C0F3C0F3E1F1E3E1FFC0FF00300001F
:105610000000000000000000FF3FFF3FFF3F0F00C1
:105620001E001E003C0038007800F000F000E00191
:10563000E001C003C0038007800F800F000F001F30
:10564000001F00000000000000000000F807FC0F31
:105650003E1F1E1E1E3E1E3E1E1E3C1FF80FF00764
:10566000F80FFC1E3E3E1F3C1F7C0F7C0F7C1F3C36
:105670003E3FFC1FF007000000000000000000009B
:10568000F007F80F7C1E3E3C1E3C1F7C1F7C1F7CDD
:105690001F7C1F3C3F3EFF1FEF071F001E001E0028
:1056A0003E003C00F838F03FE01F00000000000022
:1056B00000000000000000000000000000000000EA
:1056C000E003E003E003E00300000000000000004E
:1056D000000000000000E003E003E003E00300003E
:1056E00000000000000000000000000000000000BA
:1056F00000000000E003E003E003E003000000001E
:1057000000000000000000000000E003E003E003F0
:10571000E003E001E001E001C003800300000000BD
:10572000000000000000000003000F003F00FC002C
:10573000F003C00F003F00FE003FC00FF003FC006D
:105740003F000F0003000000000000000000000008
:105750000000000000000000000000000000000049
:1057600000000000FFFFFFFF000000000000FFFF3F
:10577000FFFF00000000000000000000000000002B
:105780000000000000000000000000000000000019
:1057900000E000F8007E801FE007F8017E001F0097
:1057A0007E00F801E007801F007E00F800E00000A6
:1057B0000000000000000000F01FFC3F3E381F38D2
:1057C0001F381E001E003C007800F000E001C003FE
:1057D000C003C007C007000000000000C007C007EA
:1057E000C00700000000000000000000F803FE0FEA
:1057F0001E1F0F3E7F3CFF78EF79C773C7F38FF30F
:105800008FF38FF39FF39FF3FF73FF7BF779003CD8
:105810001C1FFC0FF8030000000000000000000047
:10582000000000000000E003E003F007F007F007CD
:10583000780F780F7C0E3C1E3C1E3E3CFE3FFF3F27
:105840001F780F780FF007F007F00000000000004D
:1058500000000000000000000000F83FFC3F3E3C5C
:105860001E3C1E3C1E3C3E3C7C3CF03FF83F7E3CD8
:105870001F3C1F3C0F3C0F3C1F3CFE3FF83F00000D
:105880000000000000000000000000000000FF0118
:10589000FF07871F003E003C007C007800780078FE
:1058A00000780078007C007C003E003F831FFF07EB
:1058B000FF010000000000000000000000000000E8
:1058C0000000F07FFC7F7E781F781F780F780F78BC
:1058D0000F780F780F780F780F780F781F781E7871
:1058E0007E78F87FE07F00000000000000000000EC
:1058F000000000000000FF3FFF3F003E003E003E72
:10590000003E003E003EFE3FFE3F003E003E003EA9
:10591000003E003E003EFF3FFF3F00000000000051
:1059200000000000000000000000FF1FFF1F001E1D
:10593000001E001E001E001E001EFF1FFF1F001E77
:10594000001E001E001E001E001E001E001E000085
:105950000000000000000000000000000000FE0346
:10596000FF0F871F003E007C007C007800F800F8E5
:105970007FF87FF80F780F7C0F7C0F3E8F1FFF0F93
:10598000FE03000000000000000000000000000016
:1059900000001F7C1F7C1F7C1F7C1F7C1F7C1F7CCA
:1059A0001F7CFF7FFF7F1F7C1F7C1F7C1F7C1F7C59
:1059B0001F7C1F7C1F7C0000000000000000000016
:1059C000000000000000FF3FFF3FE003E003E003B2
:1059D000E003E003E003E003E003E003E003E003AF
:1059E000E003E003E003FF3FFF3F00000000000092
:1059F00000000000000000000000FC1FFC1F7C00F5
:105A00007C007C007C007C007C007C007C007C00B6
:105A10007C007C0078007800F838F03FC03F000040
:105A200000000000000000000000000000001F3C1B
:105A30001E3C3C3C783CF03CE03DE03FC03F803FBA
:105A4000C03FE03FF03DF03C783C7C3C3E3C1F3C9E
:105A50000F3C0000000000000000000000000000FB
:105A60000000003E003E003E003E003E003E003E84
:105A7000003E003E003E003E003E003E003E003E36
:105A8000003EFF3FFF3F000000000000000000005C
:105A90000000000000001FF81FFC1FFC3FFE3FFE3F
:105AA0003FFE7FFF77FF77FFF7F7E7F7E7F3E7F3CF
:105AB000C7F307F007F007F007F000000000000050
:105AC000000000000000000000000F7C0F7C0F7E33
:105AD0000F7F0F7F8F7F8F7FCF7FEF7BEF79FF79F6
